:020000040000fa
:080000000002040000000000f2
:020000040000fa
:04000800442e000082
:020000040000fa
:04000c00562e00006c
:020000040000fa
:04001000fa020000f0
:020000040000fa
:040014004c2e00006e
:020000040000fa
:040018005e2e000058
:020000040000fa
:04001c00fa020000e4
:020000040000fa
:04002000fa020000e0
:020000040000fa
:04002400fa020000dc
:020000040000fa
:040028007a2b00002f
:020000040000fa
:04002c00fa020000d4
:020000040000fa
:04003000fa020000d0
:020000040000fa
:04003400fa020000cc
:020000040000fa
:04003800fa020000c8
:020000040000fa
:04003c00fa020000c4
:020000040000fa
:04004000fa020000c0
:020000040000fa
:04004400fa020000bc
:020000040000fa
:04004800fa020000b8
:020000040000fa
:04004c00fa020000b4
:020000040000fa
:04005000fa020000b0
:020000040000fa
:04005400aa290000d5
:020000040000fa
:04005800f229000089
:020000040000fa
:04005c00fa020000a4
:020000040000fa
:04006000fa020000a0
:020000040000fa
:04006400fa0200009c
:020000040000fa
:04006800fa02000098
:020000040000fa
:04006c00042100006b
:020000040000fa
:04007000fa02000090
:020000040000fa
:04007400fa0200008c
:020000040000fa
:04007800fa02000088
:020000040000fa
:04007c00fa02000084
:020000040000fa
:04008000fa02000080
:020000040000fa
:04008400fa0200007c
:020000040000fa
:04008800fa02000078
:020000040000fa
:04008c00fa02000074
:020000040000fa
:04009000fa02000070
:020000040000fa
:040094002e2d00000d
:020000040000fa
:04009800fa02000068
:020000040000fa
:04009c00fa02000064
:020000040000fa
:0400a000ce29000065
:020000040000fa
:0400a400222a00000c
:020000040000fa
:0400a800fa02000058
:020000040000fa
:0400ac00fa02000054
:020000040000fa
:0400b000fa02000050
:020000040000fa
:0400b400fa0200004c
:020000040000fa
:0400b800fa02000048
:020000040000fa
:0400bc00fa02000044
:020000040000fa
:0400c000fa02000040
:020000040000fa
:0400c400fa0200003c
:020000040000fa
:0400c800fa02000038
:020000040000fa
:0400cc00fa02000034
:020000040000fa
:0400d000fa02000030
:020000040000fa
:0400d400fa0200002c
:020000040000fa
:0400d800fa02000028
:020000040000fa
:0400dc00fa02000024
:020000040000fa
:0400e000fa02000020
:020000040000fa
:0400e400fa0200001c
:020000040000fa
:0400e800fa02000018
:020000040000fa
:0400ec0014250000d7
:020000040000fa
:0400f000fa02000010
:020000040000fa
:0400f400fa0200000c
:020000040000fa
:0400f800fa02000008
:020000040000fa
:0400fc00fa02000004
:020000040000fa
:04010000fa020000ff
:020000040000fa
:04010400fa020000fb
:020000040000fa
:04010800fa020000f7
:020000040000fa
:04010c00fa020000f3
:020000040000fa
:04011000fa020000ef
:020000040000fa
:04011400fa020000eb
:020000040000fa
:04011800fa020000e7
:020000040000fa
:04011c00fa020000e3
:020000040000fa
:04012000fa020000df
:020000040000fa
:04012400fa020000db
:020000040000fa
:04012800fa020000d7
:020000040000fa
:04012c00fa020000d3
:020000040000fa
:04013000fa020000cf
:020000040000fa
:04013400fa020000cb
:020000040000fa
:04013800fa020000c7
:020000040000fa
:04013c00fa020000c3
:020000040000fa
:04014000fa020000bf
:020000040000fa
:04014400fa020000bb
:020000040000fa
:04014800fa020000b7
:020000040000fa
:04014c00fa020000b3
:020000040000fa
:04015000fa020000af
:020000040000fa
:04015400fa020000ab
:020000040000fa
:04015800fa020000a7
:020000040000fa
:04015c00fa020000a3
:020000040000fa
:04016000fa0200009f
:020000040000fa
:04016400fa0200009b
:020000040000fa
:04016800fa02000097
:020000040000fa
:04016c00fa02000093
:020000040000fa
:04017000fa0200008f
:020000040000fa
:04017400fa0200008b
:020000040000fa
:04017800fa02000087
:020000040000fa
:04017c00fa02000083
:020000040000fa
:04018000fa0200007f
:020000040000fa
:04018400fa0200007b
:020000040000fa
:04018800fa02000077
:020000040000fa
:04018c00fa02000073
:020000040000fa
:04019000fa0200006f
:020000040000fa
:04019400fa0200006b
:020000040000fa
:04019800fa02000067
:020000040000fa
:04019c00fa02000063
:020000040000fa
:0401a000fa0200005f
:020000040000fa
:0401a400fa0200005b
:020000040000fa
:0401a800fa02000057
:020000040000fa
:0401ac00fa02000053
:020000040000fa
:0401b000fa0200004f
:020000040000fa
:0401b400fa0200004b
:020000040000fa
:0401b800fa02000047
:020000040000fa
:0401bc00fa02000043
:020000040000fa
:0401c000fa0200003f
:020000040000fa
:0401c400fa0200003b
:020000040000fa
:0401c800fa02000037
:020000040000fa
:0401cc00fa02000033
:020000040000fa
:0401d000fa0200002f
:020000040000fa
:0401d400fa0200002b
:020000040000fa
:0401d800fa02000027
:020000040000fa
:0401dc00fa02000023
:020000040000fa
:0401e000fa0200001f
:020000040000fa
:0401e400fa0200001b
:020000040000fa
:0401e800fa02000017
:020000040000fa
:0401ec00fa02000013
:020000040000fa
:0401f000fa0200000f
:020000040000fa
:0401f400fa0200000b
:020000040000fa
:0401f800fa02000007
:020000040000fa
:0401fc00fa02000003
:020000040000fa
:04020000fa020000fe
:020000040000fa
:04020400fa020000fa
:020000040000fa
:04020800fa020000f6
:020000040000fa
:04020c00fa020000f2
:020000040000fa
:04021000fa020000ee
:020000040000fa
:04021400fa020000ea
:020000040000fa
:04021800fa020000e6
:020000040000fa
:04021c00fa020000e2
:020000040000fa
:04022000fa020000de
:020000040000fa
:04022400fa020000da
:020000040000fa
:04022800fa020000d6
:020000040000fa
:04022c00fa020000d2
:020000040000fa
:04023000fa020000ce
:020000040000fa
:04023400fa020000ca
:020000040000fa
:04023800fa020000c6
:020000040000fa
:04023c00fa020000c2
:020000040000fa
:04024000fa020000be
:020000040000fa
:04024400fa020000ba
:020000040000fa
:04024800fa020000b6
:020000040000fa
:04024c00fa020000b2
:020000040000fa
:04025000fa020000ae
:020000040000fa
:04025400fa020000aa
:020000040000fa
:04025800fa020000a6
:020000040000fa
:04025c00fa020000a2
:020000040000fa
:04026000fa0200009e
:020000040000fa
:04026400fa0200009a
:020000040000fa
:10040000cf1922000eff27000e0188000000000017
:10041000000020000000e000020032000001200087
:100420002002880014000700950007000000e0008b
:1004300003003a00e0d5220001002000020037004e
:100440000000200001002000810f70000100320038
:100450000f000700000020000000e0000200320052
:100460000000020000000000922a020000000000cc
:100470000040da000000fe00800e20000000e000d6
:1004800002003200002020009001880000000600d9
:10049000a1028800800478000000eb001f003700f4
:1004a000e284440054a0b4009905ba00e2844400f8
:1004b00054a0b4009906ba00e284440054a0b400e9
:1004c0000006eb00476fde00fd07b200ae018800ba
:1004d000636ce10003003a000ad801000000eb0061
:1004e0000e003700606ce10008003a00004deb00a0
:1004f0000a05e800020039003420ec000af0a000f0
:100500008b05e900f9ff3e00040037006168e10057
:10051000010032000086eb000b00070019c7ba008b
:100520001905ba000e04e00003003a000a00e000da
:10053000dbff3a0000000600fe07b200ae028800b2
:100540008a047800f5ff37000cd0a300e20f4d00bd
:100550001c00390089027800354dba000a05e80010
:10056000020039003420ec000af0a0008b05e900fd
:100570000f003200254dba000a05e80002003900dc
:100580003420ec000af0a0008b05e90008003200de
:100590000c00e0000600320015cdba000a05e800a4
:1005a000020039003420ec000af0a0008b05e900bd
:1005b0008984e80054a0b4000b00e000e2ff3a0098
:1005c000000006009902ba00055d78008b05e9007d
:1005d000f7ff3200c82ade00055d78008b05e900d0
:1005e000f3ff32000c00e000f1ff320019ddba0029
:1005f000eeff37000040da000000fe00889fbe00da
:1006000080047800d00c81000000e00004003a0073
:100610000e0007000084eb000000e0000800350039
:10062000d80c81000900e0000500320009004400f8
:10063000060007000000e00001003d000084eb0020
:10064000080078004f04be0000000600800078001b
:100650000100e00003003a0000002000d00c8900f7
:10066000000005000080eb0002002000828f500097
:1006700002003e00d10c89000000eb0000000600e3
:10068000000005000000e0002f003200c0017800eb
:10069000e38f51002c0036000308a3002a003a0023
:1006a000b10c81000100e00002003200810f500017
:1006b0000400310011009800b00c890016003700ca
:1006c00082007800110190000200e0000200320078
:1006d000800f5100faff3900110278008482400037
:1006e000850f500018003900808f520003003a0037
:1006f0008308420001007800070037000200e00094
:100700000300320083014000830f51000e003900c6
:100710001200980090009800900090000100e00006
:100720000900320010014000828f500006003a009c
:10073000421922000009eb00100178001108410065
:10074000910090001100980000000600889fbe00f4
:1007500000047800a10c81000100e00002003200da
:10076000010078000d003700b10c810060192200f3
:1007700004003700910f5400250036000180e80086
:10078000910090000100e000faff3a0010003700ed
:10079000920f54001e0036000280e800100178001d
:1007a0000200e000faff3a0011017800b10c81006c
:1007b0006019220004003700910f54001400360025
:1007c0000180e80091009000828f5000faff3a000b
:1007d000c90c8100888f5400010031008804780022
:1007e00009007800360007000000e00004003a002d
:1007f000888f5400050032008904d100f5ff3700ce
:10080000091878009fff0700d2ff37000000eb00b7
:100810004f04be0000000600881f780063044000fb
:100820000800a1008000eb00800f5400210036007a
:10083000e30f540001003e0048002000080078004b
:10084000c2ff07008000eb000000e000190032004a
:10085000900078009101780064815100880f510068
:1008600003003100110190000208780007003700f2
:10087000088140000208780091019000130198005f
:100880001001780011091400880878001001780020
:100890000000eb000200e000040032009201900032
:1008a0000300e000010032000280e800a00c890093
:1008b0008180e800010078004f0478000000060005
:1008c000800078000000eb000100e000050034002b
:1008d0000100780049ff0700e10f400001003a00e5
:0808e0000000eb00000006001f
:020000040000fa
:1008e800760d000000670000720d0000003800005f
:1008f800303000003030000030300000300d000093
:100908000a000000737200002c380000303000002c
:100918003030000030300000300d00000041000091
:100928004f4b00000d0a0000006700006e0d00002c
:10093800006d00006d6c00006967000068740000bd
:10094800730d00000a000000736e00002c6d00009b
:100958006d6c00006967000068740000730d00008a
:1009680000770000630d0000006b00000d00000020
:1009780032300000303000003030000030300000ed
:100988000d0a000000730000722c000032300000d5
:100998003030000030300000303000000d00000022
:1009a8006d6d000070750000736800000d0a00008e
:1009b800007300006e2c00006d6d00007075000063
:1009c800736800000d000000722c0000310d00005b
:1009d80000520000656200006f6f0000740d000097
:1009e8000a000000434d0000440d00000a0000000a
:1009f80063750000777600002c66000066650000cd
:100a0800312c0000363500000d0000006375000031
:100a1800777600002c66000066650000312c000027
:100a2800366600000d000000640d00000043000061
:100a38006f6e00006e65000063740000656400005e
:100a48003d6e00006f0d00000a000000652c0000dc
:100a5800312c0000303000003065000030620000aa
:100a68003062000037650000393900000d000000d1
:100a7800000000000000000000000000000000006e
:100a8800002000002020000020200000202000007e
:100a9800202000002020000020200000202000004e
:100aa800200000004e4f00004e45000000000000ee
:020000040000fa
:100ab8000200fa001830ef001a30ef001c30ef0087
:100ac8001e30ef002030ef002230ef002430ef001e
:100ad8002630ef008e00780020c9b3003d0a0700d9
:100ae8000004a2000004e000020032000040eb0015
:100af800ee0037009e407800b0cab30080cf5000a7
:100b0800060032009e407800c0c9b30080cf500074
:100b1800020032000040eb00e40037008040eb00a8
:100b280070c0b300ef0007000004a2000004e0005a
:100b3800020032000040eb00dc003700b1cdb3000a
:100b480010c8b3009b0907000004a2000004e000dd
:100b5800020032000040eb00d400370061cfb30040
:100b680030c8b300930907000004a2000004e000a5
:100b7800020032000040eb00cc00370071c8b3001f
:100b8800e0c8b3008b0907000004a2000004e000dd
:100b9800020032000040eb00c40037008040eb0048
:100ba800d0c9b300830907000004a2000004e000d4
:100bb800020032000040eb00bc0037008040eb0030
:100bc800e0c9b3007b0907000004a2000004e000ac
:100bd800020032000040eb00b400370001c6b30049
:100be800d0c8b300730907000004a2000004e000a5
:100bf800020032000040eb00ac0037000040eb0080
:100c0800a80507000004a2000004e000020032006a
:100c18000040eb00a500370020c0b300d70507004f
:100c28000004a2000004e000020032000040eb00d3
:100c38009e00370010c0b300040607000004a2009d
:100c48000004e000020032000040eb00970037008b
:100c58000040eb005c0507000004a2000004e0006f
:100c6800020032000040eb009000370020c3b300c0
:100c78006e0507000004a2000004e0000200320034
:100c88000040eb00890037000080eb00a107070057
:100c98000004a2000004e000020032000040eb0063
:100ca800820037000000eb00d80707000004a2000c
:100cb8000004e000020032000040eb007b00370037
:100cc80011c1b300c0c8b3003a0907000004a2006c
:100cd8000004e000020032000040eb00730037001f
:100ce80011c0b30000c9b300320907000004a20014
:100cf8000004e000020032000040eb006b00370007
:100d08008040eb00f0c9b3002a0907000004a200e4
:100d18000004e000020032000040eb0063003700ee
:100d280080c2b300930607000004a2000004e0009c
:100d3800020032000040eb005c003700e0c1b30065
:100d4800a50607000004a2000004e000020032002b
:100d58000040eb005500370001c4b30020cab300bf
:100d6800140907000004a2000004e0000200320099
:100d78000040eb004d00370020c0b300b506070067
:100d88000004a2000004e000020032000040eb0072
:100d9800460037000040eb00e50607000004a2000b
:100da8000004e000020032000040eb003f00370082
:100db80010c0b300120707000004a2000004e000fe
:100dc800020032000040eb00380037008040eb00a2
:100dd80040cab300f70807000004a2000004e000be
:100de800020032000040eb00300037008040eb008a
:100df80050cab300ef0807000004a2000004e00096
:100e0800020032000040eb00280037008040eb0071
:100e180070cab300e70807000004a2000004e0005d
:100e2800020032000040eb00200037008040eb0059
:100e380090cab300df0807000004a2000004e00025
:100e4800020032000040eb001800370091ccb300dc
:100e580060cab300d70807000004a2000004e0003d
:100e6800020032000040eb00100037008040eb0029
:100e7800a0cab300cf0807000004a2000004e000e5
:100e8800020032000040eb00080037000040eb0091
:100e9800300807000004a2000004e000020032004d
:100ea8000040eb000100370010c0b3000080fa00da
:100eb800000006000200fa008e00780000c8b300a7
:100ec800440907000004a2000004e0000200320008
:100ed80000c0eb00010037001e4078000080fa00d7
:100ee800000006000400fa002047980031479800e7
:100ef800f0ff0700004f78001e407800e14f4000e7
:100f080002003a000040eb00300037003e409000fd
:100f180061406000304798002e409000e64f500036
:100f280016003e003e4090000004e0000900320038
:100f38002e4090000080fb00110020000008dd001a
:100f4800804078001e40780000c07000004f780094
:100f5800150037002e4090000080fb001100200093
:100f68000008dd000040780080c0ea001e407800dc
:100f780000c06000004f78000b0037002e40900042
:100f8800e74f500008003a003e4090000004e0009f
:100f980003003200f0c7b300004f780002003700aa
:100fa8000040eb00004f78009e40780000c8b30076
:100fb800800807000004a2000004e00002003200dc
:100fc8000040eb000100370010c0b3000080fa00b9
:100fd800000006000200fa00004f780010c0b300bd
:100fe8001a0507000004a2000004e0000200320015
:100ff8000040eb00200037001e4078000004e000ad
:101008000700320010c0b300660707000004a20002
:101018000004e000090032000040eb001600370031
:101028000040eb005f0707000004a2000004e00096
:10103800020032000040eb000f0037007401070087
:101048000004a2000004e000020032000040eb00af
:101058000900370011c0b30010c0b300a1ff07009a
:101068000004a2000004e000020032000040eb008f
:101078000100370010c0b3000080fa00000006002d
:101088000000fa000040eb00460707000004a20039
:101098000004e000020032000040eb0009003700c5
:1010a8008040eb0010c0b3008eff07000004a200d0
:1010b8000004e000020032000040eb0001003700ad
:1010c80010c0b3000080fa00000006000200fa0019
:1010d800004f780020c0b300a80407000004a20055
:1010e8000004e000020032000040eb002700370057
:1010f8000040eb006b0407000004a2000004e000bd
:10110800020032000040eb00200037001e4078004b
:101118000004e0000700320010c0b30057070700c2
:101128000004a2000004e000090032000040eb00c7
:10113800160037000040eb00500707000004a2002b
:101148000004e000020032000040eb000f0037000e
:101158002f0107000004a2000004e0000200320092
:101168000040eb000900370011c0b30020c0b300f5
:101178005cff07000004a2000004e0000200320047
:101188000040eb000100370010c0b3000080fa00f7
:10119800000006000000fa000040eb0037070700d7
:1011a8000004a2000004e000020032000040eb004e
:1011b800090037008040eb0020c0b30049ff07005a
:1011c8000004a2000004e000020032000040eb002e
:1011d8000100370010c0b3000080fa0000000600cc
:1011e8000200fa00004f7800c001070080c0eb0041
:1011f80030c8b300ef0707000004a2000004e000b5
:10120800020032000040eb004600370091c8b300ee
:10121800e0c8b300e70707000004a2000004e000ec
:10122800020032000040eb003e00370030c0b3003f
:10123800b90407000004a2000004e0000200320024
:101248000040eb00370037001e4078000004e00043
:101258000700320010c0b3003e0707000004a200d8
:101268000004e000090032000040eb002d003700c8
:101278000040eb00370707000004a2000004e0006c
:10128800020032000040eb002600370010c0b30017
:101298007a0707000004a2000004e0000200320000
:1012a8000040eb001f003700d90007000004a2002f
:1012b8000004e000020032000040eb001900370093
:1012c80011c0b30030c0b30006ff07000004a2003d
:1012d8000004e000020032000040eb00110037007b
:1012e80011c0b30020c0b300fefe07000004a20036
:1012f8000004e000020032000040eb000900370063
:1013080011c0b30060c0b300f6fe07000004a200dd
:101318000004e000020032000040eb00010037004a
:1013280010c0b3000080fa00000006000000fa00b8
:101338006e0107000040eb00060707000004a2004a
:101348000004e000020032000040eb00100037000b
:101358000040eb00490707000004a2000004e00079
:10136800020032000040eb00090037008040eb002b
:1013780060c0b300dbfe07000004a2000004e00028
:10138800020032000040eb000100370010c0b3003b
:101398000080fa00000006000200fa008e007800c3
:1013a800f0cab3000b0807000004a2000004e00024
:1013b8000200320010c0b300090037001e40780058
:1013c80061406000004f78001e407800e14f5000f7
:1013d80002003a0010c0b300010037000040eb00e3
:1013e8000080fa00000006008800fa000040eb00c8
:1013f800604798000040eb0020479800e6ff070090
:101408000004a2000004e00006003a00a9fe07005c
:101418008080fb0010042000008060000000e000d5
:1014280005003a000000eb007700370000000000dc
:101438000100370000000000e001200061110700f2
:10144800700820000e00400080007800f0cab30049
:10145800e00707000004a2000004e00002003200d8
:10146800f00f2000680037007e4091000080fb00ec
:1014780061006000004078000004e0005b0032007a
:101488006600470080007800e0cab300d107070073
:101498000004a2000004e00002003200f00f200067
:1014a800590037006e4090000004e000dfff320072
:1014b800ee409000200020008008dd006700470013
:1014c8000141780080007800c0cfb3001c080700f5
:1014d800204798002e409000e34f5000d5ff36007b
:1014e8000000eb00000f780031003700a00c22004c
:1014f800104078000081fb009e0078006780400063
:10150800ee407800a0042200000041000148780065
:10151800a00c2200104078000081fb001e00e800ab
:1015280067004000ee407800a0062200000041005d
:1015380001487800a00c2200104078000081fb00d0
:101548001e80e80067004000ee407800a0082200f6
:101558000000410001487800a00c220010407800eb
:101568000081fb009e007800638040006700400017
:10157800ee407800a00a22000000410001487800ef
:10158800a00c2200104078008040e800a00c220047
:1015980001487800b00c2200104078008040e80034
:1015a800b00c2200014878009e007800648f40004b
:1015b8002e4090000080fb009e0f5000cbff3c00a7
:1015c800db0007000004e0000100320066020700ab
:1015d800a00c22008040eb0001487800b00c2200eb
:1015e8008040eb000148780093ff3700e0012000bd
:1015f800f41007005c020700318180002107980081
:10160800ba0007002e0090000080fa0000000600d3
:101618000000fa0011c0b3000040eb0031fe0700e3
:101628000004a2000004e000020032000040eb00c9
:101638000100370010c0b3000080fa000000060067
:101648000000fa008040eb000040eb0025fe070098
:101658000004a2000004e000020032000040eb0099
:101668000100370010c0b3000080fa000000060037
:101678000400fa00100798001e0090008000eb009c
:10168800010878008e00780040c9b30051070700b0
:101698000004a2000004e000020032000040eb0059
:1016a800150037001e4078008080fb001e00900067
:1016b800010878008e00780050c9b300450707007c
:1016c8000004a2000004e000020032000040eb0029
:1016d800090037001e009000900078001e40780036
:1016e8000080fb004800dd00808040001e00900064
:1016f8000108780010c0b3000080fa00000006005e
:101708000400fa00100798001e0090008000eb000b
:10171800010878008e00780060c9b3002d07070023
:101728000004a2000004e000020032000040eb00c8
:10173800150037001e4078008080fb001e009000d6
:10174800010878008e00780070c9b30021070700ef
:101758000004a2000004e000020032000040eb0098
:10176800090037001e009000900078001e407800a5
:101778000080fb004800dd00808040001e009000d3
:101788000108780010c0b3000080fa0000000600cd
:101798000400fa00100798001e0090008000eb007b
:1017a800010878008e00780080c9b3000907070097
:1017b8000004a2000004e000020032000040eb0038
:1017c800150037001e4078008080fb001e00900046
:1017d800010878008e00780090c9b300fd06070064
:1017e8000004a2000004e000020032000040eb0008
:1017f800090037001e009000900078001e40780015
:101808000080fb004800dd00808040001e00900042
:101818000108780010c0b3000080fa00000006003c
:101828000400fa00100798001e0090008000eb00ea
:10183800010878008e007800a0c9b300e50607000b
:101848000004a2000004e000020032000040eb00a7
:10185800150037001e4078008080fb001e009000b5
:10186800010878008e007800b0c9b300d9060700d7
:101878000004a2000004e000020032000040eb0077
:10188800090037001e009000900078001e40780084
:101898000080fb004800dd00808040001e009000b2
:1018a8000108780010c0b3000080fa0000000600ac
:1018b8000200fa00004f78000040eb00004f78006b
:1018c8008e007800c0c9b300c20607000004a20059
:1018d8000004e000020032000040eb000100370085
:1018e80010c0b3000080fa00000006000000fa00f3
:1018f800a00c22008040eb0001487800b00c2200c8
:101908008040eb00014878001830ef001a30ef00f3
:101918001c30ef001e30ef002030ef002230ef00c7
:101928002430ef002630ef000080fa0000000600a7
:101938001600fa000040eb00004f78000040eb0072
:10194800104798000040eb00204798000040eb004b
:10195800304798000040eb00404798000040eb00fb
:10196800504798000040eb00604798000040eb00ab
:1019780070479800b00c220010407800e44f5000e7
:1019880002003e000040eb0075013700b00c220059
:101998009040780000c2b30080cf50009b003e000a
:1019a800b00c2200104078000004e00097003200dc
:1019b8000000eb00400798003b003700ce00900085
:1019c800a00422000080400010407800ea4f500038
:1019d800320036004e009000010220008080400056
:1019e800a00422000080400010407800ea4f500018
:1019f8002a0036004e00900001042000808040003c
:101a0800a00422000080400010407800ea4f5000f7
:101a1800220036004e009000010620008080400021
:101a2800a00422000080400010407800ea4f5000d7
:101a38001a003600ce009000a0042200008040006a
:101a4800104f78004e009000010220008080400076
:101a5800a0042200008040009040780011479800c0
:101a68004e0090000104200080804000a004220065
:101a78000080400010417800224798004e009000f6
:101a88000106200080804000a00422000080400061
:101a98009040780031479800090037004e009000c8
:101aa8000000e80040079800b00c220010407800c1
:101ab8008080fb004e009000808f5000bfff3c00ec
:101ac8001e4078000004e000090032001e4090002b
:101ad8000004e000060032002e4090000004e00000
:101ae800030032003e4090000004e00002003a008b
:101af8000040eb001a013700b00c220010407800bb
:101b08000080fb000000e900400798003c00370017
:101b1800ce009000a0042200008040001040780011
:101b2800ea4f5000330036004e00900001022000ba
:101b380080804000a004220000804000104078000f
:101b4800ea4f50002b0036004e00900001042000a0
:101b580080804000a00422000080400010407800ef
:101b6800ea4f5000230036004e0090000106200086
:101b780080804000a00422000080400010407800cf
:101b8800ea4f50001b003600ce009000a00422004f
:101b98000080400010417800424798004e009000b5
:101ba8000102200080804000a00422000080400044
:101bb80090407800514798004e00900001042000a2
:101bc80080804000a004220000804000104178007e
:101bd800624798004e009000010620008080400077
:101be800a0042200008040009040780071479800cf
:101bf800060037004e0090000000e90040079800fa
:101c08004e0090000000e000c1ff3d009e80fb00f8
:101c18001e4090000080fb0080805000400620009d
:101c28008088b900800078001e81fb001e4090006b
:101c38000080fb000000410000017800110009004d
:101c48008200d800500798002e4090008080fb004a
:101c58003e4090000080fb0080805000400620003d
:101c68008088b900800078002e4090000081fb0039
:101c78003e4090000080fb00000041000001780019
:101c8800110009008200d800600798004e409000bb
:101c98008080fb005e4090000080fb008080500048
:101ca800400620008088b900800078004e409000ef
:101cb8000081fb005e4090000080fb0000004100b6
:101cc80000017800110009008200d8007007980010
:101cd8006e4090008080fb007e4090000080fb00fa
:101ce80080805000400620008088b900800078007d
:101cf8006e4090000081fb007e4090000080fb0059
:101d08000000410000017800110009008200d8009d
:101d1800000f9800fe0090005e00900000805000c8
:101d2800100f98008e0890006e0090000080500000
:101d3800200f9800c18080001e089000008040009d
:101d4800c0808800d18080002e089000008040006c
:101d5800d0808800c180800010032000808f500050
:101d68000300340010002000e080880008003700dd
:101d7800c1808000f0fc2f00808f500003003d00e0
:101d88000080eb00e0808800010037001c30ef0085
:101d9800d180800010032000808f500003003400a1
:101da80010002000f080880008003700d1808000f3
:101db800f0fc2f00808f500003003d000080eb00f6
:101dc800f0808800010037001e30ef00e0808000be
:101dd8000000e0003b003a00f08080000000e000d6
:101de80038003a001e089000f30f40005b003500f1
:101df8001e089000f30f50004f003c002e08900082
:101e0800f30f40004e0035002e089000f30f5000ed
:101e18004d003c001e0890000000e00007003a005a
:101e28002e0890000000e00004003a0000818000c5
:101e38000000e80000818800090037001e089000b3
:101e48000000e00003003a002e0890000000e000c7
:101e580003003200108180000000e8001081880033
:101e680000818000e90f50003900340010818000a3
:101e7800e10f5000380034001e0890000000e00018
:101e880006003a002e0890000000e00003003a0027
:101e98001000200020818800080037001e089000ec
:101ea8000000e000050032002e0890000000e0006d
:101eb80002003200200020002081880010c0b300fa
:101ec800270037001e089000f30f4000230035005c
:101ed8001e089000f30f500020003c002e089000d0
:101ee800f30f40001d0035002e089000f30f50003e
:101ef8001a003c001e0890000000e00006003a00ae
:101f08002e0890000000e00003003a0000818000e5
:101f18000000e8000081880000818000e90f50007f
:101f28000e0034001c30ef001e30ef001830ef00b8
:101f38001a30ef00090037000000000007003700e2
:101f48000000000005003700000000000300370013
:101f58000000000001003700000000000040eb0016
:101f68000080fa00000006000000fa0020818000ce
:101f7800e10f500004003a00500020003081880032
:101f880010c0b3008200370020818000e20f5000ab
:101f980004003a00600020003081880010c0b300bf
:101fa8007b003700e0808000e10f400006003a0027
:101fb800f08080000000e00003003a0030002000bc
:101fc8003081880071003700e0808000e10f500008
:101fd80006003a00f08080000000e00003003a00ac
:101fe800400020003081880068003700e0808000d1
:101ff8000000e00006003a00f0808000e10f500089
:1020080003003a0020002000308188005f0037007c
:10201800e08080000000e00006003a00f0808000c8
:10202800e10f400003003a001000200030818800d2
:1020380056003700e0808000e10f400012003a00af
:10204800f0808000e10f50000f003a00c08080004f
:102058008000780001f0a7008100ea00d0808000ad
:1020680000f0a7000000ea00808f50000300340051
:102078003000200030818800440037002000200014
:102088003081880041003700e0808000e10f500077
:1020980012003a00f0808000e10f40000f003a0083
:1020a800c08080008000780001f0a7008100ea006d
:1020b800d080800000f0a7000000ea00808f500068
:1020c8000300340040002000308188002f003700d2
:1020d80010002000308188002c003700e08080004c
:1020e800e10f400012003a00f0808000e10f40004c
:1020f8000f003a00c08080008000780001f0a7003f
:102108008100ea00d080800000f0a7000000ea000b
:10211800808f500003003400300020003081880098
:102128001a0037001000200030818800170037009f
:10213800e0808000e10f500012003a00f08080003b
:10214800e10f50000f003a00c08080008000780046
:1021580001f0a7008100ea00d080800000f0a7000d
:102168000000ea00808f5000030034004000200087
:102178003081880005003700200020003081880069
:10218800020037000040eb000100370010c0b30028
:102198000080fa00000006000200fa008e007800b5
:1021a80090c8b3008b0407000004a2000004e000fc
:1021b800020032000040eb00004f78001e4078001b
:1021c8000080fa00000006000200fa00004f7800c4
:1021d8009e40780090c8b300f60307000004a200f0
:1021e8000004e000020032000040eb00010037006c
:1021f80010c0b3000080fa00000006000200fa00d8
:102208008e007800b0c8b300720407000004a20072
:102218000004e000020032000040eb00004f7800ac
:102228001e4078000080fa00000006000200fa0054
:10223800004f78009e407800b0c8b300dd03070067
:102248000004a2000004e000020032000040eb009d
:102258000100370010c0b3000080fa00000006003b
:102268000200fa008e007800f0c8b3005904070095
:102278000004a2000004e0000200320000c0eb00ed
:10228800060037001e4078000080fb004600de0094
:1022980000407800004f78001e4078000080fa0067
:1022a800000006000400fa00204798008e0078001d
:1022b800f0c8b300470407000004a2000004e000cf
:1022c800020032000040eb00180037002e4090005a
:1022d8006340600020479800ae40900060002000f6
:1022e8000008dd00204798001e407800f043b20047
:1022f800004f78009e4078002e40900000c070008b
:10230800004f78001e40780080407800f0c8b30085
:10231800a80307000004a2000004e0000200320045
:102328000040eb000100370010c0b3000080fa0045
:10233800000006000200fa008e007800f0c8b30022
:10234800240407000004a2000004e0000200320098
:1023580000c0eb00070037001e4078000080fb003b
:102368004200de000040780063406000004f7800c3
:102378001e4078000080fa00000006000400fa0001
:10238800204798008e007800f0c8b30011040700b9
:102398000004a2000004e000020032000040eb004c
:1023a800190037002e4090006340600020479800d5
:1023b800ae409000200020000008dd002047980073
:1023c8009e40780030cfb30000c06000004f780016
:1023d8009e4078002e40900000c07000004f7800aa
:1023e8001e40780080407800f0c8b30071030700f1
:1023f8000004a2000004e000020032000040eb00ec
:102408000100370010c0b3000080fa000000060089
:102418000200fa008e007800f0c8b300ed03070050
:102428000004a2000004e0000200320000c0eb003b
:10243800040037001e40780063406000004f7800b9
:102448001e4078000080fa00000006000400fa0030
:10245800204798008e007800f0c8b300dd0307001d
:102468000004a2000004e000020032000040eb007b
:10247800150037002e409000634060002047980008
:102488009e407800c0cfb30000c06000004f7800c5
:102498009e4078002e40900000c07000004f7800e9
:1024a8001e40780080407800f0c8b3004103070060
:1024b8000004a2000004e000020032000040eb002b
:1024c8000100370010c0b3000080fa0000000600c9
:1024d8000200fa008e00780000c9b300bd030700af
:1024e8000004a2000004e0000200320000c0eb007b
:1024f800070037001e4078000080fb004400de0023
:102508000040780063406000004f78001e4078006b
:102518000080fa00000006000400fa002047980036
:102528008e00780000c9b300aa0307000004a200c7
:102538000004e000020032000040eb001900370000
:102548002e4090006340600020479800ae40900005
:10255800400020000008dd00204798009e407800d9
:10256800f0ccb30000c06000004f78009e407800b7
:102578002e40900000c07000004f78001e40780088
:102588008040780000c9b3000a0307000004a200d5
:102598000004e000020032000040eb0001003700b8
:1025a80010c0b3000080fa00000006000200fa0024
:1025b8008e007800f0c9b300860307000004a2006b
:1025c8000004e0000200320000c0eb000700370002
:1025d8001e4078000080fb004500de0000407800c7
:1025e80061406000004f78001e4078000080fa00cb
:1025f800000006000400fa00204798008e007800ca
:10260800f0c9b300730307000004a2000004e0004f
:10261800020032000040eb00180037002e40900006
:102628006140600020479800ae40900050002000b4
:102638000008dd00204798001e4078000054a100e3
:10264800004f78009e4078002e40900000c0700037
:10265800004f78001e40780080407800f0c9b30031
:10266800d40207000004a2000004e00002003200c7
:102678000040eb000100370010c0b3000080fa00f2
:10268800000006000200fa008e007800f0c9b300ce
:10269800500307000004a2000004e000020032001a
:1026a80000c0eb00040037001e4078006f40600057
:1026b800004f78001e4078000080fa0000000600f5
:1026c8000400fa00204798008e007800f0c9b30093
:1026d800400307000004a2000004e00002003200ea
:1026e8000040eb00150037002e4090006f4060005e
:1026f800204798009e40780000cfb30000c06000db
:10270800004f78009e4078002e40900000c0700076
:10271800004f78001e40780080407800f0c9b30070
:10272800a40207000004a2000004e0000200320036
:102738000040eb000100370010c0b3000080fa0031
:10274800000006000200fa008e00780000cab300fc
:10275800200307000004a2000004e0000200320089
:102768000040eb00004f78001e4078000080fa001f
:10277800000006000200fa00004f78009e40780032
:1027880000cab3008b0207000004a2000004e000a6
:10279800020032000040eb000100370010c0b30017
:1027a8000080fa00000006000200fa008e0078009f
:1027b80010cab300070307000004a2000004e000e9
:1027c800020032000040eb00004f78001e40780005
:1027d8000080fa00000006000200fa00004f7800ae
:1027e8009e40780010cab300720207000004a200dd
:1027f8000004e000020032000040eb000100370056
:1028080010c0b3000080fa00000006000200fa00c1
:102818008e00780030cab300ee0207000004a20060
:102828000004e0000200320000c0eb00070037009f
:102838001e4078000080fb004500de000040780064
:1028480063406000004f78001e4078000080fa0066
:10285800000006000400fa00204798008e00780067
:1028680030cab300db0207000004a2000004e00045
:10287800020032000040eb00190037002e409000a3
:102888006340600020479800ae4090005000200050
:102898000008dd00204798009e407800f0c9b3008a
:1028a80000c06000004f78009e4078002e409000e5
:1028b80000c07000004f78001e407800804078000b
:1028c80030cab3003b0207000004a2000004e00085
:1028d800020032000040eb000100370010c0b300d6
:1028e8000080fa00000006000200fa008e0078005e
:1028f80030cab300b70207000004a2000004e000d9
:102908000200320000c0eb00070037001e407800cc
:102918000080fb004300de00004078006340600058
:10292800004f78001e4078000080fa000000060082
:102938000400fa00204798008e00780030cab300df
:10294800a40207000004a2000004e0000200320014
:102958000040eb00190037002e40900063406000f3
:1029680020479800ae409000300020000008dd00ad
:10297800204798009e40780070ceb30000c06000e9
:10298800004f78009e4078002e40900000c07000f4
:10299800004f78001e4078008040780030cab300ad
:1029a800040207000004a2000004e0000200320054
:1029b8000040eb000100370010c0b3000080fa00af
:1029c800000006000200fa008e00780030cab3004a
:1029d800800207000004a2000004e00002003200a8
:1029e80000c0eb00040037001e407800674060001c
:1029f800004f78001e4078000080fa0000000600b2
:102a08000400fa00204798008e00780030cab3000e
:102a1800700207000004a2000004e0000200320077
:102a28000040eb00150037002e4090006740600022
:102a3800204798009e40780080cfb30000c0600017
:102a4800004f78009e4078002e40900000c0700033
:102a5800004f78001e4078008040780030cab300ec
:102a6800d40107000004a2000004e00002003200c4
:102a78000040eb000100370010c0b3000080fa00ee
:102a8800000006000400fa00100798001e009000dd
:102a98008000eb00010878008e00780040c8b30081
:102aa8004c0207000004a2000004e000020032000b
:102ab8000040eb00150037001e4078008080fb00c6
:102ac8001e009000010878008e00780050c8b300fe
:102ad800400207000004a2000004e00002003200e7
:102ae8000040eb00090037001e00900090007800bd
:102af8001e4078000080fb004800dd008080400018
:102b08001e0090000108780010c0b3000080fa0091
:102b1800000006000400fa00100798001e0090004c
:102b2800004f78001e0090004800de001047980013
:102b38009e40780040c8b3009e0107000004a20030
:102b48000004e000020032000040eb0009003700fa
:102b58009e40900050c8b300960107000004a200f0
:102b68000004e000020032000040eb0001003700e2
:102b780010c0b3000080fa00000006000400fa004c
:102b8800100798001e0090008000eb0001087800f4
:102b98008e00780060c8b3000e0207000004a2008f
:102ba8000004e000020032000040eb00150037008e
:102bb8001e4078008080fb001e009000010878000d
:102bc8008e00780070c8b300020207000004a2005b
:102bd8000004e000020032000040eb00090037006a
:102be8001e009000900078001e4078000080fb00d6
:102bf8004800dd00808040001e0090000108780039
:102c080010c0b3000080fa00000006000400fa00bb
:102c1800100798001e009000004f78001e009000da
:102c28004800de00104798009e40780060c8b30056
:102c3800600107000004a2000004e0000200320066
:102c48000040eb00090037009e40900070c8b300b8
:102c5800580107000004a2000004e000020032004e
:102c68000040eb000100370010c0b3000080fa00fc
:102c7800000006000200fa00000f78001e0078002d
:102c88008040eb00014878009e00780090c8b300af
:102c9800d00107000004a2000004e0000200320096
:102ca8000040eb000100370010c0b3000080fa00bc
:102cb800000006000200fa00004f78009e407800ed
:102cc80090c8b3003b0107000004a2000004e00024
:102cd800020032000040eb000100370010c0b300d2
:102ce8000080fa00000006000200fa00000f7800d9
:102cf8001e0078008040eb00014878009e007800b4
:102d0800b0c8b300b30107000004a2000004e0004b
:102d1800020032000040eb000100370010c0b30091
:102d28000080fa00000006000200fa00004f780058
:102d38009e407800b0c8b3001e0107000004a2003e
:102d48000004e000020032000040eb000100370000
:102d580010c0b3000080fa00000006000200fa006c
:102d68008e00780000c8b3009a0107000004a20092
:102d78000004e0000200320000c0eb00070037004a
:102d88001e4078000080fb004400de000040780010
:102d980061406000004f78001e4078000080fa0013
:102da800000006000400fa00204798008e00780012
:102db80000c8b300870107000004a2000004e00077
:102dc800020032000040eb00180037002e4090004f
:102dd8006140600020479800ae409000400020000d
:102de8000008dd00204798001e4078000044a1003c
:102df800004f78009e4078002e40900000c0700080
:102e0800004f78001e4078008040780000c8b3006a
:102e1800e80007000004a2000004e00002003200fd
:102e28000040eb000100370010c0b3000080fa003a
:102e3800000006000200fa008e00780000c8b30007
:102e4800640107000004a2000004e0000200320050
:102e580000c0eb00070037001e4078000080fb0030
:102e68004500de000040780061406000004f7800b7
:102e78001e4078000080fa00000006000400fa00f6
:102e8800204798008e00780000c8b3005101070061
:102e98000004a2000004e000020032000040eb0041
:102ea800180037002e4090006140600020479800cd
:102eb800ae409000500020000008dd002047980038
:102ec8001e4078000054a100004f78009e40780012
:102ed8002e40900000c07000004f78001e4078001f
:102ee8008040780000c8b300b20007000004a200c8
:102ef8000004e000020032000040eb00010037004f
:102f080010c0b3000080fa00000006000200fa00ba
:102f18008e007800b0cab3002e0107000004a2009a
:102f28000004e0000200320000c0eb000700370098
:102f38001e4078000080fb000000d10000407800af
:102f480061406000004f78001e4078000080fa0061
:102f5800000006000400fa00204798008e00780060
:102f6800b0cab3001b0107000004a2000004e0007f
:102f7800020032000040eb00170037002e4090009e
:102f880061406000204798002e40900000404000bb
:102f9800204798001e4078000014a100004f7800d8
:102fa8009e4078002e40900000c07000004f7800ce
:102fb8001e40780080407800b0cab3007d0007004a
:102fc8000004a2000004e000020032000040eb0010
:102fd8000100370010c0b3000080fa0000000600ae
:102fe8000200fa008e00780070ceb300f9000700e6
:102ff8000004a2000004e000020032000040eb00e0
:103008000100370010c0b3000080fa00000006007d
:103018000200fa008e00780050ceb300ed000700e1
:103028000004a2000004e000020032000040eb00af
:103038000100370010c0b3000080fa00000006004d
:103048000200fa008e007800b0cab300e100070061
:103058000004a2000004e0000200320000c0eb00ff
:10306800040037001e40780061406000004f78007f
:103078001e4078000080fa00000006000400fa00f4
:10308800204798008e007800b0cab300d10007002e
:103098000004a2000004e000020032000040eb003f
:1030a800140037002e4090006140600020479800cf
:1030b8001e4078000004a100004f78009e40780070
:1030c8002e40900000c07000004f78001e4078002d
:1030d80080407800b0cab300360007000004a200a0
:1030e8000004e000020032000040eb00010037005d
:1030f80010c0b3000080fa00000006000800fa00c3
:103108006047980010002000200798000000eb009e
:10311800000f78000000eb00100798001f00370030
:10312800e400470066004700810178009203200010
:1031380011c0b30078050700090037009e00900011
:1031480080bb2000808f500002003a000040eb0056
:10315800160037001e0090000000e80010079800d5
:103168002e009000e10f5000f4ff32002e00900076
:10317800e20f500002003a0010c0b3000b00370005
:10318800400620009e007800808f500002003a0020
:103198000040eb00050037001e0fe8002e009000ed
:1031a8000000e000deff3a000040eb000080fa007b
:1031b800000006000a00fa00004f9800114f98001e
:1031c80010002000200798000000eb00000f780096
:1031d8000000eb00100798008e48900061479800a7
:1031e8009e489000714798001f003700e400470090
:1031f80066004700810178009203200021c0b300d7
:1032080045050700090037009e00900080bb20009c
:10321800808f500002003a000040eb001600370093
:103228001e0090000000e800100798002e00900093
:10323800e10f5000f4ff32002e009000e20f500022
:1032480002003a0010c0b3000b003700400620000f
:103258009e007800808f500002003a000040eb008a
:10326800050037001e0fe8002e0090000000e00067
:10327800deff3a000040eb000080fa000000060084
:103288001000fa00204f9800610798007207980014
:1032980010002000400798007e0090000000e80021
:1032a8005bf50700300798000000eb00000f78007e
:1032b8000000eb00100798003e009000ae48900018
:1032c800014878000000eb00200798000c00370048
:1032d8002e0090000000e800be0090000080400032
:1032e800ae0090006e01900081004100914078008e
:1032f800014878002e0090000000e80020079800a0
:10330800ae0090007e009000808f5000f0ff3900e2
:10331800280037007e009000004078000040e80058
:10332800e80047008101780092032000804078007f
:103338003e009000f80407000b0037009e00900044
:1033480080bb2000808f500004003a003e009000af
:10335800caf407000040eb001c0037001e00900074
:103368000000e800100798004e009000e10f5000a0
:10337800f2ff32004e009000e20f500004003a00c5
:103388003e009000bdf4070010c0b3000f003700e6
:10339800400620009e007800808f500004003a000c
:1033a8003e009000b5f407000040eb00070037002e
:1033b8001e0fe8004e0090000000e000d5ff3a0024
:1033c8003e009000adf407000040eb000080fa00da
:1033d800000006000c00fa00004f98005107980002
:1033e80010002000200798000000eb00000f780074
:1033f8000000eb00100798008e4890006147980085
:103408001d003700e400470066004700810178008e
:103418009203200011c0b300bf0407000900370061
:103428009e00900080bb2000808f500002003a0070
:103438000040eb00400037001e0090000000e8004c
:10344800100798002e009000e10f5000f4ff3200a2
:103458002e009000e20f50000b00320040062000c2
:103468009e007800808f500002003a000040eb0078
:10347800310037001e0fe8002e0090000000e00029
:10348800e0ff3a0001003700000000002e00900025
:10349800e20f500027003a000000eb00000f780010
:1034a8000000eb00100798001f0037006400470079
:1034b800800178009203200011c0b3005e009000e4
:1034c800ae040700090037009e00900080bb200072
:1034d800808f500002003a000040eb0016003700d1
:1034e8001e0090000000e800100798002e009000d1
:1034f800e10f5000f4ff32002e009000e20f500060
:1035080002003a0010c0b3000b003700400620004c
:103518009e007800808f500002003a000040eb00c7
:10352800050037001e0fe8002e0090000000e000a4
:10353800deff3a000040eb000080fa0000000600c1
:103548000e00fa00004f980051079800424f98006b
:1035580010002000200798000000eb00000f780002
:103568000000eb00100798008e4890006147980013
:103578001d003700e400470066004700810178001d
:103588009203200011c0b30063040700090037004c
:103598009e00900080bb2000808f500002003a00ff
:1035a8000080eb00410037001e0090000000e8009a
:1035b800100798002e009000e10f5000f4ff320031
:1035c8002e009000e20f50000b0032004006200051
:1035d8009e007800808f500002003a000000eb0047
:1035e800320037001e0fe8002e0090000000e000b7
:1035f800e0ff3a0001003700000000002e009000b4
:10360800e20f500028003a000000eb00000f78009d
:103618000000eb0010079800200037006400470006
:103628008001780092032000ce4890005e00900050
:1036380052040700090037009e00900080bb20005c
:10364800808f500002003a000080eb00170037001e
:103658001e0090000000e800100798002e0090005f
:10366800e10f5000f4ff32002e009000e20f5000ee
:1036780003003a004e4890000080fb000b00370022
:10368800400620009e007800808f500002003a001b
:103698000080eb00050037001e0fe8002e009000a8
:1036a8000000e000ddff3a000080eb000080fa0037
:1036b800000006000400fa00100798000000eb0064
:1036c800000f78000b0037001e00900010407800b3
:1036d8000004e0000b0032001e009000104078004b
:1036e8009e0090008100e80011079800fb06070083
:1036f8001e0fe8001e007800f80f5000f2ff34009b
:103708000100370000000000a80607000080fa004a
:10371800000006000400fa00100798000000eb0003
:10372800000f78000b0037001e0090001040780052
:103738000004e0000c0032001e00900010407800e9
:103748009e0090008100e80011079800f10607002c
:103758001e0fe800100320009e007800808f5000a4
:10376800f1ff340001003700000000009306070055
:103778000080fa00000006000600fa002007980002
:103788000000eb00000f78006109200020c0b300a2
:1037980071080700170037008c0607000000e000da
:1037a8000e0032009f060700204798002e00900068
:1037b800ae409000014878002e0090000000e8001c
:1037c800200798001e0fe8002e409000ea4f500096
:1037d80002003a00100020000b00370020c0b300a0
:1037e8006a0807000004e000020032000000eb0055
:1037f80005003700100320009e007800808f5000dd
:10380800e5ff36000000eb000080fa00000006002b
:103818000600fa00200798000000eb00000f78006f
:103828006109200020c0b3004b08070017003700cb
:10383800710607000000e0000e0032009006070045
:10384800204798002e009000ae4090000148780074
:103858002e0090000000e800200798001e0fe800e6
:103868002e409000ea4f500002003a00100020005d
:103878000b00370020c0b300440807000004e00034
:10388800020032000000eb000500370010032000a2
:103898009e007800808f5000e5ff36000000eb00a6
:1038a8000080fa00000006003c00fa00501f980053
:1038b8000000eb0010079800810c200020c0b30026
:1038c8002508070067004700200798001700370001
:1038d8003e0607000000e0000e0032005106070017
:1038e800604798002e009000ee4090000148780054
:1038f8002e0090000000e800200798001e009000ad
:103908000000e800100798006e409000ea4f500051
:103918000b00320020c0b3001c0807000004e000c0
:10392800020032000000eb002a0037009e009000e1
:1039380010032000808f5000e5ff3600010037009b
:103948000000000067004700200798000000eb0017
:10395800000f78001a0037005e18900010407800b9
:103968000004e00002003a001000200019003700af
:103978005e189000904078002e009000104078006b
:1039880000c068000080fb000000ea004f00de0075
:1039980000407800de1890008100e800511f980070
:1039a800ae0090008100e800210798000004e000c4
:1039b800020032000000eb00060037001e0fe8008e
:1039c8001e0090009e007800808f5000e2ff3900b2
:1039d800100020000080fa00000006003c00fa00f9
:1039e800501f98000000eb0010079800810c200081
:1039f80020c0b300d80707006700470020079800d9
:103a080017003700fc0507000000e0000e00320038
:103a18001b060700604798002e009000ee409000bb
:103a2800014878002e0090000000e8002007980068
:103a38001e0090000000e800100798006e409000fb
:103a4800ea4f50000b00320020c0b300cf07070038
:103a58000004e000020032000000eb002a003700fa
:103a68009e00900010032000808f5000e5ff360074
:103a78000100370000000000670047002007980099
:103a88000000eb00000f78001a0037005e18900065
:103a9800104078000004e00002003a001000200006
:103aa800190037005e189000904078002e009000b2
:103ab8001040780000c068000080fb000000ea00a9
:103ac8004f00de0000407800de1890008100e8001a
:103ad800511f9800ae0090008100e800210798006f
:103ae8000004e000020032000000eb00060037008e
:103af8001e0fe8001e0090009e007800808f500086
:103b0800e2ff3900100020000080fa0000000600e3
:103b18003800fa00301f98000000eb0010079800ea
:103b280040472800e3fe0700000000000141800034
:103b380000002100008060000000e000fbff3a0068
:103b4800640047000cff07000000e00002003a0094
:103b5800200020006b0037000000eb00000f780009
:103b6800130037003e1890001e0040001e01780028
:103b7800eb004100e4804000eec078000148780086
:103b88003e1890001e0040009040780000c2b3002c
:103b980080cf500005003a003e1890001e004000fb
:103ba8008040eb0001487800040037001e0fe80051
:103bb8001e007800e70f5000eaff36003e1890001c
:103bc800680040008040eb000148780070472800fa
:103bd800b8fe0700b047280033ff07000000e000e8
:103be8000a003a0060482800b2fe07003049280061
:103bf8002dff07000000e00002003a00300020001e
:103c08004000370010002000100798009049280055
:103c1800a8fe0700d049280023ff07000000e000a5
:103c28000a003a00804a2800a2fe0700304928000e
:103c38001dff07000000e00002003a0040002000dd
:103c48003000370010002000100798001e00900078
:103c5800e10f50001d003a00504b280095fe070068
:103c68003049280010ff07000000e00002003a0079
:103c78005000200023003700960007000000e000f5
:103c880002003a00600020001e003700704728003c
:103c980088fe0700b047280003ff07000000e00087
:103ca80002003a00700020001600370090492800f2
:103cb80080fe0700d0492800fbfe07000000e00056
:103cc80002003a00800020000e00370001010700c2
:103cd8000000e00002003200904b280075fe07004b
:103ce8002003200037070700010037004d050700b3
:103cf800360507000000e000fcff3a000e0107004f
:103d0800100020000080fa00000006003800fa00c9
:103d1800301f98000000eb0010079800404728006b
:103d28007cfe070000000000114180000000280010
:103d3800008060000000e000fbff3a0064004700dc
:103d4800b3fe07000000e00002003a002000200057
:103d58005e0037000000eb00000f7800130037000a
:103d68003e1890001e0040001e017800eb00410044
:103d7800e4804000eec07800014878003e189000ca
:103d88001e0040009040780000c2b30080cf500071
:103d980005003a003e1890001e0040008040eb00ed
:103da80001487800040037001e0fe8001e00780064
:103db800e70f5000eaff36003e1890006800400008
:103dc8008040eb00014878007047280051fe07004a
:103dd800c04b280001ff07000000e0000a003a007d
:103de800704c28004bfe070030492800fbfe0700f6
:103df8000000e00002003a003000200033003700e5
:103e080010002000100798009049280041fe070084
:103e1800404d2800f1fe07000000e0000a003a00cb
:103e2800d04d28003bfe070030492800ebfe070074
:103e38000000e00002003a004000200023003700a4
:103e480010002000100798001e009000e10f50009d
:103e58001d003a00504b28002efe0700304928006c
:103e6800defe07000000e00002003a0050002000db
:103e780016003700480007000000e00002003a0082
:103e880060002000110037007047280021fe07005d
:103e9800c04b2800d1fe07000000e00002003a00f5
:103ea80070002000090037009049280019fe07001b
:103eb800404d2800c9fe07000000e00002003a005b
:103ec8008000200001003700100020000080fa0068
:103ed800000006000000fa00804e2800f5fd0700eb
:103ee800d04e280070fe07000000e00002003a00f3
:103ef8000000eb0026003700810c200020c0b30032
:103f0800950607000600370020c0b3009f0607008b
:103f18000004e000020032000000eb001c00370043
:103f2800aa0407000000e000f7ff3200bd04070004
:103f38000000e000020032000000eb00140037002f
:103f480081bb200020c0b3008306070006003700ad
:103f580020c0b3008d0607000004e0000200320014
:103f68000000eb000a003700980407000000e0009a
:103f7800f7ff3200604f28004bfe07000000e0000a
:103f880002003a000000eb0001003700100020009a
:103f98000080fa00000006000000fa00804e2800a9
:103fa800dcfd0700d04e28008cfe07000000e00072
:103fb80002003a000000eb0026003700810c2000c8
:103fc80020c0b300640607000600370020c0b30015
:103fd8006e0607000004e000020032000000eb005b
:103fe8001c003700840407000000e000f7ff3200df
:103ff800a30407000000e000020032000000eb000c
:104008001400370081bb200020c0b300520607000f
:104018000600370020c0b3005c0607000004e0007b
:10402800020032000000eb000a00370072040700ab
:104038000000e000f7ff3200604f280067fe07002d
:104048000000e00002003a000000eb000100370029
:10405800100020000080fa00000006000000fa00ae
:104068001c0007000000e00001003a0032000700d1
:10407800c04f28008ffd0700a00020005106070050
:104088003049280008fe07000000e000f8ff320071
:104098000080fa00000006000000fa000d0007008a
:1040a8000000e00001003a0023000700a0502800ab
:1040b80080fd0700a00020004206070030492800c4
:1040c800f9fd07000000e000f8ff32000080fa0068
:1040d800000006003400fa008051280075fd070032
:1040e800a0002000370607000e80e800a2fd0700a8
:1040f8000e80e800a0fd0700b0512800eafd070087
:1041080000f0a7000000ea00000fe9001e00780098
:104118004f00de00000f780001003700410407005f
:104128002a0407000000e000fcff3a001e007800a7
:104138000080fa00000006000000fa00a0522800e3
:104148005cfd0700a00020001e060700304928007b
:10415800d5fd07000000e000f8ff3200010037003d
:1041680030040700190407000000e000fcff3a00d3
:104178000080fa00000006000000fa00000021009c
:10418800a11422001100980000002100a1142200af
:104198000108780000002100a00090000110a00094
:1041a8002100980000002100a00090000100a1005b
:1041b80021009800000021008040eb006140980039
:1041c80030012000201088000000280030108800ee
:1041d8000822ef000228a9002228a8000080fa007f
:1041e800000006000200fa0000002100e0409000f4
:1041f800014f78001e4078000080fa000000060099
:104208003600f800809fbe00829fbe00849fbe00db
:10421800869fbe000000fa000228a9004110800015
:1042280000082000008060000000e0000800320064
:1042380008e2a9000830ef0070808000200090009c
:104248008000eb00010878000e30ef000d01370008
:10425800408080008000eb00b200200003002000b6
:10426800820f5000838f5800fc003e0000060100ba
:104278000b00370039003700750037009c00370005
:10428800f3003700c8003700d9003700f0003700c6
:10429800db003700f10037003400370050003700ea
:1042a8000000210020009000620060000000e00093
:1042b800f3003a0000002100100090007080880090
:1042c8000000210010009000104078000af0b700ac
:1042d800000021001000900010009000608088000d
:1042e8000000210010009000e600400000002100be
:1042f8001100980000002100900090002016220074
:10430800808f500003003a0000002100a114220011
:104318001100980000002100a00090000100a100f9
:10432800210098000000210090009000000021006a
:1043380010007800808f500004003a00000021002f
:10434800a00090000110a000210098000602a8001b
:104358002000200040808800ca0037000622a800fc
:104368002000200040808800c600370041108000ef
:1043780000002800008060000000e0000800320013
:1043880000002100604090008040e800000021000b
:104398006140980040002000d2000700b9003700b3
:1043a800808080008000d100f00f20000080600035
:1043b8001010880080808000610060000040780054
:1043c8000004e00003003200b000200040808800b4
:1043d800ac0037003000200040808800a90037007a
:1043e8004110800000002800008060000000e0000c
:1043f8000800320000002100604090008040e80082
:10440800000021006140980040002000b50007002e
:104418009c0037000622a800808080004800de004b
:10442800e6006000000f2000010070008080880016
:10443800808080000000a0008080880010c0b30049
:1044480012f0b70020002000408088008d0037005f
:1044580012d0bf00e14f50000a0032006080800097
:104468001000780080808800608080002000900024
:10447800a0808800608080002040900016f0b7007f
:10448800010037001270ef0081808000f00f2000db
:10449800808f500009003600808080004800de00d0
:1044a800e6006000000f2000010070001010880076
:1044b800a0002000408088007200370080808000c3
:1044c8001010880080808000610060000040780043
:1044d8000004e00003003200500020004080880003
:1044e80068003700300020004080880065003700f1
:1044f8004110800000002800008060000000e000fb
:104508000900320000002100604090008040e8006f
:10451800000021006140980009e2a9005000200035
:10452800700007005700370016d0bf008080fb00de
:104538008100e900cf08de00814078000040e900f2
:1045480016f0b7000104e00010003200608080001f
:1045580066004000608088000ad0bf000040e90083
:104568000af0b7000ad0bf000004e00003003a00d8
:10457800200020005b000700420037000622a80048
:1045880020002000408088003e003700a080800086
:10459800904078008180fb00111088000000e8003e
:1045a800a0808800370037004110800000002800f4
:1045b800008060000000e0000900320000002100d7
:1045c800604090008040e8000000210061409800b1
:1045d800400020004300070009e2a9002900370035
:1045e8000662a8008000200040808800250037006f
:1045f80080002000408088000662a8002100370063
:10460800a080800001108000814078000148780077
:104618000000e800a080880016d0bf000040e90034
:1046280016f0b70016d0bf000004e0000400320006
:1046380006a2a90060002000408088000200370020
:1046480006a2a800160007000682a8000d00370081
:1046580020002000230007000a0037000000210086
:10466800604090008040e800000021006140980010
:10467800600020001b000700000000000100370058
:10468800000000000080fa004f03be004f02be0089
:104698004f01be004f00be003600f9000040060082
:1046a8000000fa006080800066004000608088009a
:1046b8000ad0bf000040e9000af0b7000ad0bf00e6
:1046c8000004e00003003a00400020004080880019
:1046d8000200370010002000408088000080fa00a7
:1046e800000006000200fa00000f78000642a80049
:1046f80070808000200090000000e000030032007d
:1047080070808000200090001e0878000830ef00bc
:104718000080fa00000006000800fa00000f780088
:1047280021479800220798003307980000002100cd
:1047380020009000610060000000e0000a003a00dc
:10474800ae0190002e4190009e0078008016220055
:10475800770007003e0190008116220010c0b300c8
:104768001f000700030037003e0090008000eb00a8
:10477800010878000080fa00000006000800fa002e
:10478800000f780021479800220798003307980007
:104798000000210020009000610060000000e0009f
:1047a8000a003a00ae0190002e4190009e00780069
:1047b80020162200460007003e0190002116220024
:1047c80010c0b30006000700030037003e00900049
:1047d8008000eb00010878000080fa000000060065
:1047e8000600fa00004f7800110798002207980089
:1047f8000000210020009000610060000000e0003f
:104808002e003a002e0090001100200001087800c8
:1048180000002100100078009e0090001100980010
:1048280000002100100078001e48780000002100d8
:1048380010007800ae0090002100980000002100d0
:1048480010007800e6004000000021000108780010
:10485800000021009000780020162200808f500070
:1048680003003a0000002100a1142200010878008a
:1048780000002100a00090000110a1002100980074
:104888000000210090009000000021001000780036
:10489800808f500004003a0000002100a000900022
:1048a8000100a00021009800408080000000e00086
:1048b80005003a000228a800030037002e009000e7
:1048c8008000eb00010878000080fa000000060074
:1048d8000800fa00000f7800110798004247980076
:1048e800330798003e0090000000400080007800e8
:1048f8001e007800010878001e007800100078007b
:10490800800078000100a0001e00780001087800ef
:104918001e007800ce409000214098001e007800cc
:104928009e009000210098000080fa000000060018
:104938000800fa00000f7800110798004247980015
:10494800330798003e009000000040008000780087
:104958001e007800010878001e007800ce40900004
:10496800214098001e0078009e00900021009800c9
:104978000080fa00000006000000fa000000210094
:10498800200090000000d100614060000080fb0022
:1049980000f0a7000000ea000000ea004f00de0077
:1049a800004078000080fa00000006000000fa00cd
:1049b8000000210020009000614060000080fb00a2
:1049c80000f0a7000000ea000000ea004f00de0047
:1049d800004078000080fa00000006000000fa009d
:1049e80000002800b01088001822ef00c000200046
:1049f800d50007000000eb00cd0007003830ef00bd
:104a08000000eb00b60007000000eb00ba0007004a
:104a18000628a9002628a8000080fa000000060041
:104a28003600f800809fbe00829fbe00849fbe00b3
:104a3800869fbe000200fa00c0818000e20f50008d
:104a480087003200e20f500003003900e30f5000e6
:104a58007600320094003700b1108000004020003a
:104a6800008060000000e00005003a00c1108000ee
:104a780000022000008060000000e0000a00320010
:104a8800b110800000082000008060000000e000f5
:104a980021003200c110800000202000008060004a
:104aa8000000e0001c003200c010800064006000bc
:104ab8000000e0000b003a0010002000c9000700c9
:104ac80044f0b70010002000c081880044d0bf0027
:104ad8000004e0003800320080108000004f7800a9
:104ae800360037000000eb00be000700e0818000c0
:104af8000000e00005003200e081800010407800ee
:104b08000080fb00901088001782a8002000200079
:104b1800c081880029003700b110800000402000c3
:104b2800008060000000e00024003200c110800016
:104b380000022000008060000000e0001f003a0032
:104b4800c0108000640060000000e00004003a002b
:104b58004070ef0030002000c0818800130037004b
:104b680040d0bf000004e0000d0032000000eb0060
:104b78009c000700e08180000000e0000500320092
:104b8800e0818000104078000080fb0090108800d1
:104b98001782a80020002000c08188000300370089
:104ba8004070ef0030002000c08188008010800035
:104bb800004f78000100370000000000c08180002d
:104bc800e10f500039003a00c110800000022000b7
:104bd800008060000000e00036003200c110800054
:104be80000042000008060000000e0000b003a0094
:104bf800d08180000000e00004003200d0818000f5
:104c08008110800081407800014878002000200051
:104c18007400070044f0b7002900370080108000b6
:104c2800004f780018c2a900250037003000200086
:104c38006c00070044f0b70010c0b30040f0b700a4
:104c480044d0bf000004e000020032008010800061
:104c5800004f780010002000c0818800180037003d
:104c6800c110800000002800008060000000e00003
:104c78000b003a000000eb005a000700e0818000ba
:104c88000000e0000d003200e08180001040780054
:104c98000080fb00901088001782a80008003700e9
:104ca8003830ef0006003700ffff37000000000033
:104cb800030037000000000001003700000000007a
:104cc8000628a9000080fa004f03be004f02be006c
:104cd8004f01be004f00be003600f900004006003c
:104ce8000200fa00000f78009e007800e181880039
:104cf8000080fa00000006000200fa00000f7800a9
:104d08009e007800d18188000080fa00000006002b
:104d18000000fa00e08180000080fa000000060030
:104d28000000fa00d08180000080fa000000060030
:104d38000200fa00000f78009e007800e110880059
:104d48000080fa00000006000200fa00000f780058
:104d5800f00720009e007800808f50000200360087
:104d68001742a800010037001742a9003830ef00a9
:104d78009e007800d11088000080fa00000006002c
:104d88000000fa00e08180000000e0000600320028
:104d9800e0818000104078000080fb0090108800bf
:104da8001782a80001003700000000000080fa0008
:104db800000006000000fa00d08180000000e0003a
:104dc80005003200d0818000811080008140780089
:104dd8000148780001003700000000000080fa0058
:104de800000006000200fa00000f78001e0078009c
:104df800e10f50001a003200e10f50001b00310093
:104e0800f0818000e10c2200008040001040780012
:104e180043f0b700f0818000e10c220000804000e0
:104e2800104078000004e0000a003200f0818000a1
:104e3800e10c2200008040008040eb00014878002f
:104e4800f08180008000e800f0032000008060000e
:104e5800f081880030042100a1ff0700040037001a
:104e680020042100a4ff0700010037000000000013
:104e780010c0b3000080fa00000006000200fa002b
:104e8800004f7800f08180000000e800e10c22006b
:104e980000804000104078000004e000020032006a
:104ea8000040eb000b003700f0818000e10c22008d
:104eb800008040001e487800f08180000000e80073
:104ec800e10c2200008040008040eb00014878009f
:104ed80010c0b3000080fa00000006000e00fa00bf
:104ee8001007980021079800320798004307980098
:104ef8005407980065079800ae0090004e00900097
:104f0800808040006e00900000804000e300400078
:104f1800f0032000808f5000020036000040eb00b4
:104f2800680037000000eb00000f78000d00370024
:104f3800f18180001e00780080804000f00320008e
:104f4800008060009e0078001e01900081004100f2
:104f580091407800e20c22000000410001487800ee
:104f68001e0fe8009e0078002e009000808f5000f1
:104f7800efff3900f18180001e007800808040003a
:104f8800f003200000806000e10c22000080400057
:104f9800a1c3b300014878000000eb00000f7800bf
:104fa80010003700f18180002e00900080804000c2
:104fb8001e007800008040008000e800f003200018
:104fc800008060009e0078003e0190008100410052
:104fd80091407800e20c220000004100014878006e
:104fe8001e0fe8009e0078004e009000808f500051
:104ff800ecff3900f18180002e0090008080400095
:105008001e007800008040008000e800f0032000c7
:1050180000806000e10c220000804000a1c3b300c2
:10502800014878000000eb00000f780012003700fc
:10503800f18180002e009000808040004e0090009a
:10504800808040001e007800008040008080e800da
:10505800f0032000008060009e0078005e01900050
:105068008100410091407800e20c220000004100dc
:10507800014878001e0fe8009e0078006e0090003e
:10508800808f5000eaff3900f18180002e009000e7
:10509800808040004e009000808040001e00780014
:1050a800008040008080e800f0032000008060005d
:1050b800e10c2200008040008040eb0001487800ad
:1050c80010c0b3000080fa00000006000000fa00db
:1050d800a004210050818800508180004081880010
:1050e800a044210070818800708180006081880060
:1050f800a0842100908188009081800080818800b0
:10510800a0c42100b0818800b0818000a0818800ff
:10511800700020004011880070002000c011880035
:105128008000280000118800800028008011880075
:1051380000402000101188000040200090118800d5
:10514800f0022000203688000010200080348800fb
:1051580030052000303688003000200050348800a8
:105168000168a9002168a80003c8a90023c8a800ed
:105178000080fa00000006000000fa00011180001b
:10518800f05f2f00008060000090a00000118800f0
:1051980081118000f05f2f00008060000090a00067
:1051a800801188000080fa00000006000000fa0064
:1051b8002188a8000080fa00000006000000fa001c
:1051c80023e8a8000080fa00000006000000fa00aa
:1051d8000200fc004181800050818000808f5000d7
:1051e80002003a000000eb00010037001000200028
:1051f8000080fa00000006000000fa000200fc002f
:105208008181800090818000808f500002003a00e8
:105218000000eb0001003700100020000080fa00b9
:10522800000006000200fa000200fc004181800034
:1052380050818000808f500002003a000000eb008f
:105248000d00370040818000904078008180fb008d
:10525800010f78000000e80040818800418180004b
:1052680090442100808f500002003600a0042100e5
:10527800408188001e0078000080fa0000000600c7
:105288000200fa000200fc00818180009081800009
:10529800808f500002003a000000eb000d0037003c
:1052a80080818000904078008180fb00010f7800a9
:1052b8000000e800808188008181800090c421007e
:1052c800808f500002003600a08421008081880071
:1052d8001e0078000080fa00000006000200fa00b4
:1052e800004f7800708180001e4878000000e800b8
:1052f800708188007181800090842100808f500027
:1053080002003600a0442100708188000080fa0065
:10531800000006000200fa00004f7800b08180000b
:105328001e4878000000e800b0818800b181800044
:1053380090042200808f500002003600a0c4210093
:10534800b08188000080fa0000000600809fbe003f
:105358000000fa000168a900508180003111800026
:1053680081407800014878000000e80050818800fa
:105378005181800090442100808f50000200360047
:10538800a0042100508188000080fa004f00be0070
:1053980000400600809fbe000000fa0003c8a90074
:1053a80090818000b1118000814078000148780028
:1053b8000000e800908188009181800090c421005d
:1053c800808f500002003600a08421009081880060
:1053d8000080fa004f00be0000400600809fbe001b
:1053e8000000fa006181800070818000808f500089
:1053f8000e0032000188a90060818000904078008a
:105408008180fb00211188000000e800608188008d
:105418006181800090842100808f50000400360054
:10542800a044210060818800010037002188a9007c
:105438000080fa004f00be0000400600809fbe00ba
:105448000000fa00a1818000b0818000808f5000a8
:105458000e00320003e8a900a08180009040780087
:105468008180fb00a11188000000e800a08188006d
:10547800a181800090042200808f50000400360033
:10548800a0c42100a08188000100370023e8a900fa
:105498000080fa004f00be00004006000000fa003d
:1054a800213a8000f08f2f0000806000203a8800a9
:1054b800113a80000070200001007000103a880046
:1054c8004207a80000000000113a800000002700f1
:1054d8008080600000002700808f5000faff3a00ab
:1054e800402eef004e2eef00602eef006e2eef00e4
:1054f8001e2eef00502eef00302eef003e2eef0054
:10550800f2fe070009010700c028ef00c228ef00db
:10551800c3e8a8000080fa00000006000a00fa00ac
:10552800c0532800904078001147980090409000a0
:1055380021479800e3004700060009008058eb0067
:105548000040eb00004f7800d4ff070044eea800ad
:1055580064eea800540ea800346ea800f3000700fb
:10556800a001070040aea90051ed07000004e000cb
:105578000100320044aea80010c0b30018ef0700c5
:105588000004e0000100320044aea80040062000fc
:105598000c0107000100370022ff07000bff07007e
:1055a8000000e000fcff3a000100370034ff07006c
:1055b80011ff07000000e000fcff3a000e00e800c1
:1055c80053f90700004f78001e407800e14f500063
:1055d800faff3a000e00e800ccf90700004f780007
:1055e8001e407800e14f5000faff3a00e2fe070043
:1055f800010037000000000040828000e10f5000e9
:10560800fcff3a00020007004830ef00faff3700bd
:105618000000fa0060ef07000004e00031003200eb
:1056280071ef0700e20f500018003200e20f50003f
:1056380003003c00e10f5000110032001600370053
:10564800e30f500003003200e40f50000400320062
:105658001100370030c0b30008fe070021003700f2
:10566800b5002000641322008300200022122200cb
:1056780061002000e010220018fe07001900370022
:1056880010c0b300fdfd07001600370020c0b300ae
:10569800fafd07001300370000ccb30061000700d3
:1056a800505428008a00070000ccb3005d000700b2
:1056b80040c1b3005b00070040c1b30059000700b8
:1056c80040c1b3005700070040c1b30055000700b0
:1056d80040c1b30053000700605528007c00070054
:1056e800000000000080fa0000000600801f78001b
